{
  "address": "0x5FbDB2315678afecb367f032d93F642f64180aa3",
  "abi": [
    {
      "inputs": [
        {
          "internalType": "string",
          "name": "_name",
          "type": "string"
        },
        {
          "internalType": "string",
          "name": "_symbol",
          "type": "string"
        },
        {
          "internalType": "address",
          "name": "_newOwner",
          "type": "address"
        },
        {
          "internalType": "bool",
          "name": "_isNFT",
          "type": "bool"
        }
      ],
      "stateMutability": "nonpayable",
      "type": "constructor"
    },
    {
      "inputs": [],
      "name": "LSP4TokenNameNotEditable",
      "type": "error"
    },
    {
      "inputs": [],
      "name": "LSP4TokenSymbolNotEditable",
      "type": "error"
    },
    {
      "inputs": [
        {
          "internalType": "address",
          "name": "tokenOwner",
          "type": "address"
        },
        {
          "internalType": "uint256",
          "name": "authorizedAmount",
          "type": "uint256"
        },
        {
          "internalType": "address",
          "name": "operator",
          "type": "address"
        },
        {
          "internalType": "uint256",
          "name": "amount",
          "type": "uint256"
        }
      ],
      "name": "LSP7AmountExceedsAuthorizedAmount",
      "type": "error"
    },
    {
      "inputs": [
        {
          "internalType": "uint256",
          "name": "balance",
          "type": "uint256"
        },
        {
          "internalType": "address",
          "name": "tokenOwner",
          "type": "address"
        },
        {
          "internalType": "uint256",
          "name": "amount",
          "type": "uint256"
        }
      ],
      "name": "LSP7AmountExceedsBalance",
      "type": "error"
    },
    {
      "inputs": [],
      "name": "LSP7CannotSendWithAddressZero",
      "type": "error"
    },
    {
      "inputs": [],
      "name": "LSP7CannotUseAddressZeroAsOperator",
      "type": "error"
    },
    {
      "inputs": [],
      "name": "LSP7InvalidTransferBatch",
      "type": "error"
    },
    {
      "inputs": [
        {
          "internalType": "address",
          "name": "tokenReceiver",
          "type": "address"
        }
      ],
      "name": "LSP7NotifyTokenReceiverContractMissingLSP1Interface",
      "type": "error"
    },
    {
      "inputs": [
        {
          "internalType": "address",
          "name": "tokenReceiver",
          "type": "address"
        }
      ],
      "name": "LSP7NotifyTokenReceiverIsEOA",
      "type": "error"
    },
    {
      "anonymous": false,
      "inputs": [
        {
          "indexed": true,
          "internalType": "address",
          "name": "operator",
          "type": "address"
        },
        {
          "indexed": true,
          "internalType": "address",
          "name": "tokenOwner",
          "type": "address"
        },
        {
          "indexed": true,
          "internalType": "uint256",
          "name": "amount",
          "type": "uint256"
        }
      ],
      "name": "AuthorizedOperator",
      "type": "event"
    },
    {
      "anonymous": false,
      "inputs": [
        {
          "indexed": true,
          "internalType": "bytes32",
          "name": "dataKey",
          "type": "bytes32"
        }
      ],
      "name": "DataChanged",
      "type": "event"
    },
    {
      "anonymous": false,
      "inputs": [
        {
          "indexed": true,
          "internalType": "address",
          "name": "previousOwner",
          "type": "address"
        },
        {
          "indexed": true,
          "internalType": "address",
          "name": "newOwner",
          "type": "address"
        }
      ],
      "name": "OwnershipTransferred",
      "type": "event"
    },
    {
      "anonymous": false,
      "inputs": [
        {
          "indexed": true,
          "internalType": "address",
          "name": "operator",
          "type": "address"
        },
        {
          "indexed": true,
          "internalType": "address",
          "name": "tokenOwner",
          "type": "address"
        }
      ],
      "name": "RevokedOperator",
      "type": "event"
    },
    {
      "anonymous": false,
      "inputs": [
        {
          "indexed": true,
          "internalType": "address",
          "name": "operator",
          "type": "address"
        },
        {
          "indexed": true,
          "internalType": "address",
          "name": "from",
          "type": "address"
        },
        {
          "indexed": true,
          "internalType": "address",
          "name": "to",
          "type": "address"
        },
        {
          "indexed": false,
          "internalType": "uint256",
          "name": "amount",
          "type": "uint256"
        },
        {
          "indexed": false,
          "internalType": "bool",
          "name": "force",
          "type": "bool"
        },
        {
          "indexed": false,
          "internalType": "bytes",
          "name": "data",
          "type": "bytes"
        }
      ],
      "name": "Transfer",
      "type": "event"
    },
    {
      "inputs": [
        {
          "internalType": "address",
          "name": "operator",
          "type": "address"
        },
        {
          "internalType": "uint256",
          "name": "amount",
          "type": "uint256"
        }
      ],
      "name": "authorizeOperator",
      "outputs": [],
      "stateMutability": "nonpayable",
      "type": "function"
    },
    {
      "inputs": [
        {
          "internalType": "address",
          "name": "tokenOwner",
          "type": "address"
        }
      ],
      "name": "balanceOf",
      "outputs": [
        {
          "internalType": "uint256",
          "name": "",
          "type": "uint256"
        }
      ],
      "stateMutability": "view",
      "type": "function"
    },
    {
      "inputs": [
        {
          "internalType": "address",
          "name": "_newAdmin",
          "type": "address"
        }
      ],
      "name": "changeAdmin",
      "outputs": [],
      "stateMutability": "nonpayable",
      "type": "function"
    },
    {
      "inputs": [
        {
          "internalType": "string",
          "name": "_cid",
          "type": "string"
        }
      ],
      "name": "createLink",
      "outputs": [],
      "stateMutability": "nonpayable",
      "type": "function"
    },
    {
      "inputs": [],
      "name": "decimals",
      "outputs": [
        {
          "internalType": "uint256",
          "name": "",
          "type": "uint256"
        }
      ],
      "stateMutability": "view",
      "type": "function"
    },
    {
      "inputs": [
        {
          "internalType": "uint256",
          "name": "_tokenId",
          "type": "uint256"
        },
        {
          "internalType": "string",
          "name": "_cid",
          "type": "string"
        }
      ],
      "name": "editLink",
      "outputs": [],
      "stateMutability": "nonpayable",
      "type": "function"
    },
    {
      "inputs": [],
      "name": "fetchLinks",
      "outputs": [
        {
          "components": [
            {
              "internalType": "string",
              "name": "cid",
              "type": "string"
            },
            {
              "internalType": "address",
              "name": "author",
              "type": "address"
            },
            {
              "internalType": "uint256",
              "name": "id",
              "type": "uint256"
            }
          ],
          "internalType": "struct LinksNFT.Link[]",
          "name": "links",
          "type": "tuple[]"
        },
        {
          "internalType": "uint256",
          "name": "",
          "type": "uint256"
        },
        {
          "internalType": "address",
          "name": "",
          "type": "address"
        }
      ],
      "stateMutability": "view",
      "type": "function"
    },
    {
      "inputs": [
        {
          "internalType": "bytes32[]",
          "name": "dataKeys",
          "type": "bytes32[]"
        }
      ],
      "name": "getData",
      "outputs": [
        {
          "internalType": "bytes[]",
          "name": "dataValues",
          "type": "bytes[]"
        }
      ],
      "stateMutability": "view",
      "type": "function"
    },
    {
      "inputs": [
        {
          "internalType": "bytes32",
          "name": "dataKey",
          "type": "bytes32"
        }
      ],
      "name": "getData",
      "outputs": [
        {
          "internalType": "bytes",
          "name": "dataValue",
          "type": "bytes"
        }
      ],
      "stateMutability": "view",
      "type": "function"
    },
    {
      "inputs": [
        {
          "internalType": "address",
          "name": "operator",
          "type": "address"
        },
        {
          "internalType": "address",
          "name": "tokenOwner",
          "type": "address"
        }
      ],
      "name": "isOperatorFor",
      "outputs": [
        {
          "internalType": "uint256",
          "name": "",
          "type": "uint256"
        }
      ],
      "stateMutability": "view",
      "type": "function"
    },
    {
      "inputs": [
        {
          "internalType": "uint256",
          "name": "",
          "type": "uint256"
        }
      ],
      "name": "linkByTokenId",
      "outputs": [
        {
          "internalType": "string",
          "name": "cid",
          "type": "string"
        },
        {
          "internalType": "address",
          "name": "author",
          "type": "address"
        },
        {
          "internalType": "uint256",
          "name": "id",
          "type": "uint256"
        }
      ],
      "stateMutability": "view",
      "type": "function"
    },
    {
      "inputs": [
        {
          "internalType": "uint256",
          "name": "",
          "type": "uint256"
        }
      ],
      "name": "linksIds",
      "outputs": [
        {
          "internalType": "uint256",
          "name": "",
          "type": "uint256"
        }
      ],
      "stateMutability": "view",
      "type": "function"
    },
    {
      "inputs": [],
      "name": "owner",
      "outputs": [
        {
          "internalType": "address",
          "name": "",
          "type": "address"
        }
      ],
      "stateMutability": "view",
      "type": "function"
    },
    {
      "inputs": [],
      "name": "renounceOwnership",
      "outputs": [],
      "stateMutability": "nonpayable",
      "type": "function"
    },
    {
      "inputs": [
        {
          "internalType": "address",
          "name": "operator",
          "type": "address"
        }
      ],
      "name": "revokeOperator",
      "outputs": [],
      "stateMutability": "nonpayable",
      "type": "function"
    },
    {
      "inputs": [
        {
          "internalType": "bytes32[]",
          "name": "dataKeys",
          "type": "bytes32[]"
        },
        {
          "internalType": "bytes[]",
          "name": "dataValues",
          "type": "bytes[]"
        }
      ],
      "name": "setData",
      "outputs": [],
      "stateMutability": "nonpayable",
      "type": "function"
    },
    {
      "inputs": [
        {
          "internalType": "bytes32",
          "name": "dataKey",
          "type": "bytes32"
        },
        {
          "internalType": "bytes",
          "name": "dataValue",
          "type": "bytes"
        }
      ],
      "name": "setData",
      "outputs": [],
      "stateMutability": "nonpayable",
      "type": "function"
    },
    {
      "inputs": [
        {
          "internalType": "bytes4",
          "name": "interfaceId",
          "type": "bytes4"
        }
      ],
      "name": "supportsInterface",
      "outputs": [
        {
          "internalType": "bool",
          "name": "",
          "type": "bool"
        }
      ],
      "stateMutability": "view",
      "type": "function"
    },
    {
      "inputs": [],
      "name": "totalSupply",
      "outputs": [
        {
          "internalType": "uint256",
          "name": "",
          "type": "uint256"
        }
      ],
      "stateMutability": "view",
      "type": "function"
    },
    {
      "inputs": [
        {
          "internalType": "address",
          "name": "from",
          "type": "address"
        },
        {
          "internalType": "address",
          "name": "to",
          "type": "address"
        },
        {
          "internalType": "uint256",
          "name": "amount",
          "type": "uint256"
        },
        {
          "internalType": "bool",
          "name": "force",
          "type": "bool"
        },
        {
          "internalType": "bytes",
          "name": "data",
          "type": "bytes"
        }
      ],
      "name": "transfer",
      "outputs": [],
      "stateMutability": "nonpayable",
      "type": "function"
    },
    {
      "inputs": [
        {
          "internalType": "address[]",
          "name": "from",
          "type": "address[]"
        },
        {
          "internalType": "address[]",
          "name": "to",
          "type": "address[]"
        },
        {
          "internalType": "uint256[]",
          "name": "amount",
          "type": "uint256[]"
        },
        {
          "internalType": "bool",
          "name": "force",
          "type": "bool"
        },
        {
          "internalType": "bytes[]",
          "name": "data",
          "type": "bytes[]"
        }
      ],
      "name": "transferBatch",
      "outputs": [],
      "stateMutability": "nonpayable",
      "type": "function"
    },
    {
      "inputs": [
        {
          "internalType": "address",
          "name": "newOwner",
          "type": "address"
        }
      ],
      "name": "transferOwnership",
      "outputs": [],
      "stateMutability": "nonpayable",
      "type": "function"
    }
  ],
  "transactionHash": "0x2e45344553c3019faa96b921e5332525da30ddb685c385a9983bc322755619b9",
  "args": [
    "LuksoLinks",
    "LL",
    "0x0CEd2afBb9d4d9023059b2F7Cc07f24C4058CF30",
    false
  ],
  "numDeployments": 1,
  "solcInputHash": "bfd6a6089db8b4b8f8c950399ecf5580",
  "bytecode": "0x60806040523480156200001157600080fd5b506040516200438f3803806200438f833981810160405281019062000037919062000569565b83838383838383806200005581620001a560201b620010c71760201c565b50620000c57feafec4d89fa9619884b60000a4d96624a38f7ac2d8d9a604ecf07c12c77e480c60001b6040518060400160405280600481526020017fa4d9662400000000000000000000000000000000000000000000000000000000815250620002ad60201b620011c61760201c565b620000ff7fdeba1e292f8ba88238e10ab3c7f88bd4be4fac56cad5194b6ecceaf653468af160001b84620002ad60201b620011c61760201c565b620001397f2f0a68ab07768e01943a599e73362a0e17a63a72e94dd2e384d2c1d4db93275660001b83620002ad60201b620011c61760201c565b50505080600260006101000a81548160ff0219169083151502179055505050505081600c60006101000a81548173ffffffffffffffffffffffffffffffffffffffff021916908373ffffffffffffffffffffffffffffffffffffffff160217905550505050506200094b565b620001b56200030160201b60201c565b73ffffffffffffffffffffffffffffffffffffffff168173ffffffffffffffffffffffffffffffffffffffff1614620002aa5760008060009054906101000a900473ffffffffffffffffffffffffffffffffffffffff169050816000806101000a81548173ffffffffffffffffffffffffffffffffffffffff021916908373ffffffffffffffffffffffffffffffffffffffff1602179055508173ffffffffffffffffffffffffffffffffffffffff168173ffffffffffffffffffffffffffffffffffffffff167f8be0079c531659141344cd1fd0a4f28419497f9722a3daafe3b4186f6b6457e060405160405180910390a3505b50565b80600160008481526020019081526020016000209081620002cf919062000864565b50817fcdf4e344c0d23d4cdd0474039d176c55b19d531070dbe17856bfb993a5b5720b60405160405180910390a25050565b60008060009054906101000a900473ffffffffffffffffffffffffffffffffffffffff16905090565b6000604051905090565b600080fd5b600080fd5b600080fd5b600080fd5b6000601f19601f8301169050919050565b7f4e487b7100000000000000000000000000000000000000000000000000000000600052604160045260246000fd5b620003938262000348565b810181811067ffffffffffffffff82111715620003b557620003b462000359565b5b80604052505050565b6000620003ca6200032a565b9050620003d8828262000388565b919050565b600067ffffffffffffffff821115620003fb57620003fa62000359565b5b620004068262000348565b9050602081019050919050565b60005b838110156200043357808201518184015260208101905062000416565b8381111562000443576000848401525b50505050565b6000620004606200045a84620003dd565b620003be565b9050828152602081018484840111156200047f576200047e62000343565b5b6200048c84828562000413565b509392505050565b600082601f830112620004ac57620004ab6200033e565b5b8151620004be84826020860162000449565b91505092915050565b600073ffffffffffffffffffffffffffffffffffffffff82169050919050565b6000620004f482620004c7565b9050919050565b6200050681620004e7565b81146200051257600080fd5b50565b6000815190506200052681620004fb565b92915050565b60008115159050919050565b62000543816200052c565b81146200054f57600080fd5b50565b600081519050620005638162000538565b92915050565b6000806000806080858703121562000586576200058562000334565b5b600085015167ffffffffffffffff811115620005a757620005a662000339565b5b620005b58782880162000494565b945050602085015167ffffffffffffffff811115620005d957620005d862000339565b5b620005e78782880162000494565b9350506040620005fa8782880162000515565b92505060606200060d8782880162000552565b91505092959194509250565b600081519050919050565b7f4e487b7100000000000000000000000000000000000000000000000000000000600052602260045260246000fd5b600060028204905060018216806200066c57607f821691505b60208210810362000682576200068162000624565b5b50919050565b60008190508160005260206000209050919050565b60006020601f8301049050919050565b600082821b905092915050565b600060088302620006ec7fffffffffffffffffffffffffffffffffffffffffffffffffffffffffffffffff82620006ad565b620006f88683620006ad565b95508019841693508086168417925050509392505050565b6000819050919050565b6000819050919050565b6000620007456200073f620007398462000710565b6200071a565b62000710565b9050919050565b6000819050919050565b620007618362000724565b6200077962000770826200074c565b848454620006ba565b825550505050565b600090565b6200079062000781565b6200079d81848462000756565b505050565b5b81811015620007c557620007b960008262000786565b600181019050620007a3565b5050565b601f8211156200081457620007de8162000688565b620007e9846200069d565b81016020851015620007f9578190505b6200081162000808856200069d565b830182620007a2565b50505b505050565b600082821c905092915050565b6000620008396000198460080262000819565b1980831691505092915050565b600062000854838362000826565b9150826002028217905092915050565b6200086f8262000619565b67ffffffffffffffff8111156200088b576200088a62000359565b5b62000897825462000653565b620008a4828285620007c9565b600060209050601f831160018114620008dc5760008415620008c7578287015190505b620008d3858262000846565b86555062000943565b601f198416620008ec8662000688565b60005b828110156200091657848901518255600182019150602085019450602081019050620008ef565b8683101562000936578489015162000932601f89168262000826565b8355505b6001600288020188555050505b505050505050565b613a34806200095b6000396000f3fe608060405234801561001057600080fd5b50600436106101425760003560e01c80637f23690c116100b8578063a8a34e0a1161007c578063a8a34e0a1461034f578063b34d35da1461036b578063d95b63711461039b578063e3904f0e146103cb578063f2fde38b146103fd578063fad8b32a1461041957610142565b80637f23690c146102c15780638da5cb5b146102dd5780638f283970146102fb578063951130661461031757806397fd37051461033357610142565b806347980aa31161010a57806347980aa3146101ef5780634e3e6e9c1461020b57806354f6127f1461023b57806370a082311461026b578063715018a61461029b578063760d9bba146102a557610142565b806301ffc9a71461014757806314a6e2931461017757806318160ddd1461019357806323449b7c146101b1578063313ce567146101d1575b600080fd5b610161600480360381019061015c9190611fa9565b610435565b60405161016e9190611ff1565b60405180910390f35b610191600480360381019061018c9190612331565b610496565b005b61019b610541565b6040516101a891906123c2565b60405180910390f35b6101b961054b565b6040516101c8939291906125d6565b60405180910390f35b6101d9610798565b6040516101e691906123c2565b60405180910390f35b6102096004803603810190610204919061266c565b6107c0565b005b610225600480360381019061022091906126ac565b6107d6565b604051610232919061280c565b60405180910390f35b6102556004803603810190610250919061282e565b61088c565b60405161026291906128a5565b60405180910390f35b610285600480360381019061028091906128c7565b61089e565b60405161029291906123c2565b60405180910390f35b6102a36108e7565b005b6102bf60048036038101906102ba9190612920565b6108fb565b005b6102db60048036038101906102d691906129b7565b610a33565b005b6102e5610a49565b6040516102f29190612a13565b60405180910390f35b610315600480360381019061031091906128c7565b610a72565b005b610331600480360381019061032c9190612a89565b610b10565b005b61034d60048036038101906103489190612ad6565b610c74565b005b61036960048036038101906103649190612cbc565b610d43565b005b61038560048036038101906103809190612da7565b610e36565b60405161039291906123c2565b60405180910390f35b6103b560048036038101906103b09190612dd4565b610e5a565b6040516103c291906123c2565b60405180910390f35b6103e560048036038101906103e09190612da7565b610f5c565b6040516103f493929190612e5e565b60405180910390f35b610417600480360381019061041291906128c7565b61102e565b005b610433600480360381019061042e91906128c7565b6110b1565b005b600063e33f65c360e01b7bffffffffffffffffffffffffffffffffffffffffffffffffffffffff1916827bffffffffffffffffffffffffffffffffffffffffffffffffffffffff1916148061048f575061048e82611218565b5b9050919050565b61049e611279565b80518251146104e2576040517f08c379a00000000000000000000000000000000000000000000000000000000081526004016104d990612f0e565b60405180910390fd5b60005b825181101561053c5761052c83828151811061050457610503612f2e565b5b602002602001015183838151811061051f5761051e612f2e565b5b60200260200101516112f0565b610535816113b6565b90506104e5565b505050565b6000600354905090565b606060008060006009805490509050600060098054806020026020016040519081016040528092919081815260200182805480156105a857602002820191906000526020600020905b815481526020019060010190808311610594575b505050505090508167ffffffffffffffff8111156105c9576105c8612022565b5b60405190808252806020026020018201604052801561060257816020015b6105ef611f06565b8152602001906001900390816105e75790505b50945060005b8281101561076357600a600083838151811061062757610626612f2e565b5b6020026020010151815260200190815260200160002060405180606001604052908160008201805461065890612f8c565b80601f016020809104026020016040519081016040528092919081815260200182805461068490612f8c565b80156106d15780601f106106a6576101008083540402835291602001916106d1565b820191906000526020600020905b8154815290600101906020018083116106b457829003601f168201915b505050505081526020016001820160009054906101000a900473ffffffffffffffffffffffffffffffffffffffff1673ffffffffffffffffffffffffffffffffffffffff1673ffffffffffffffffffffffffffffffffffffffff16815260200160028201548152505086828151811061074d5761074c612f2e565b5b6020026020010181905250806001019050610608565b5084600b54600c60009054906101000a900473ffffffffffffffffffffffffffffffffffffffff169450945094505050909192565b6000600260009054906101000a900460ff166107b55760126107b8565b60005b60ff16905090565b6107d26107cb6113c3565b83836113cb565b5050565b6060815167ffffffffffffffff8111156107f3576107f2612022565b5b60405190808252806020026020018201604052801561082657816020015b60608152602001906001900390816108115790505b50905060005b82518110156108865761085883828151811061084b5761084a612f2e565b5b60200260200101516115af565b82828151811061086b5761086a612f2e565b5b602002602001018190525061087f816113b6565b905061082c565b50919050565b6060610897826115af565b9050919050565b6000600460008373ffffffffffffffffffffffffffffffffffffffff1673ffffffffffffffffffffffffffffffffffffffff168152602001908152602001600020549050919050565b6108ef611279565b6108f960006110c7565b565b60006109056113c3565b90508573ffffffffffffffffffffffffffffffffffffffff168173ffffffffffffffffffffffffffffffffffffffff1614610a1e576000600560008873ffffffffffffffffffffffffffffffffffffffff1673ffffffffffffffffffffffffffffffffffffffff16815260200190815260200160002060008373ffffffffffffffffffffffffffffffffffffffff1673ffffffffffffffffffffffffffffffffffffffff16815260200190815260200160002054905080851115610a0657868183876040517ff3a6b6910000000000000000000000000000000000000000000000000000000081526004016109fd9493929190612fbd565b60405180910390fd5b610a1c87838784610a179190613031565b6113cb565b505b610a2b8686868686611654565b505050505050565b610a3b611279565b610a4582826112f0565b5050565b60008060009054906101000a900473ffffffffffffffffffffffffffffffffffffffff16905090565b600c60009054906101000a900473ffffffffffffffffffffffffffffffffffffffff1673ffffffffffffffffffffffffffffffffffffffff163373ffffffffffffffffffffffffffffffffffffffff1614610acc57600080fd5b80600c60006101000a81548173ffffffffffffffffffffffffffffffffffffffff021916908373ffffffffffffffffffffffffffffffffffffffff16021790555050565b818160066000019182610b2492919061321c565b5033600660010160006101000a81548173ffffffffffffffffffffffffffffffffffffffff021916908373ffffffffffffffffffffffffffffffffffffffff160217905550600b60008154610b78906132ec565b9190508190556006600201819055506006600a6000600b54815260200190815260200160002060008201816000019081610bb2919061334a565b506001820160009054906101000a900473ffffffffffffffffffffffffffffffffffffffff168160010160006101000a81548173ffffffffffffffffffffffffffffffffffffffff021916908373ffffffffffffffffffffffffffffffffffffffff160217905550600282015481600201559050506009600b549080600181540180825580915050600190039060005260206000200160009091909190915055610c7033600b546001604051806020016040528060008152506118e4565b5050565b3373ffffffffffffffffffffffffffffffffffffffff16600a600085815260200190815260200160002060010160009054906101000a900473ffffffffffffffffffffffffffffffffffffffff1673ffffffffffffffffffffffffffffffffffffffff1614610d18576040517f08c379a0000000000000000000000000000000000000000000000000000000008152600401610d0f9061347e565b60405180910390fd5b8181600a60008681526020019081526020016000206000019182610d3d92919061321c565b50505050565b83518551141580610d5657508251855114155b80610d6357508051855114155b15610d9a576040517f263eee8d00000000000000000000000000000000000000000000000000000000815260040160405180910390fd5b60005b8551811015610e2e57610e1b868281518110610dbc57610dbb612f2e565b5b6020026020010151868381518110610dd757610dd6612f2e565b5b6020026020010151868481518110610df257610df1612f2e565b5b602002602001015186868681518110610e0e57610e0d612f2e565b5b60200260200101516108fb565b8080610e26906132ec565b915050610d9d565b505050505050565b60098181548110610e4657600080fd5b906000526020600020016000915090505481565b60008273ffffffffffffffffffffffffffffffffffffffff168273ffffffffffffffffffffffffffffffffffffffff1603610ed657600460008373ffffffffffffffffffffffffffffffffffffffff1673ffffffffffffffffffffffffffffffffffffffff168152602001908152602001600020549050610f56565b600560008373ffffffffffffffffffffffffffffffffffffffff1673ffffffffffffffffffffffffffffffffffffffff16815260200190815260200160002060008473ffffffffffffffffffffffffffffffffffffffff1673ffffffffffffffffffffffffffffffffffffffff1681526020019081526020016000205490505b92915050565b600a602052806000526040600020600091509050806000018054610f7f90612f8c565b80601f0160208091040260200160405190810160405280929190818152602001828054610fab90612f8c565b8015610ff85780601f10610fcd57610100808354040283529160200191610ff8565b820191906000526020600020905b815481529060010190602001808311610fdb57829003601f168201915b5050505050908060010160009054906101000a900473ffffffffffffffffffffffffffffffffffffffff16908060020154905083565b611036611279565b600073ffffffffffffffffffffffffffffffffffffffff168173ffffffffffffffffffffffffffffffffffffffff16036110a5576040517f08c379a000000000000000000000000000000000000000000000000000000000815260040161109c90613510565b60405180910390fd5b6110ae816110c7565b50565b6110c46110bc6113c3565b8260006113cb565b50565b6110cf610a49565b73ffffffffffffffffffffffffffffffffffffffff168173ffffffffffffffffffffffffffffffffffffffff16146111c35760008060009054906101000a900473ffffffffffffffffffffffffffffffffffffffff169050816000806101000a81548173ffffffffffffffffffffffffffffffffffffffff021916908373ffffffffffffffffffffffffffffffffffffffff1602179055508173ffffffffffffffffffffffffffffffffffffffff168173ffffffffffffffffffffffffffffffffffffffff167f8be0079c531659141344cd1fd0a4f28419497f9722a3daafe3b4186f6b6457e060405160405180910390a3505b50565b806001600084815260200190815260200160002090816111e6919061358b565b50817fcdf4e344c0d23d4cdd0474039d176c55b19d531070dbe17856bfb993a5b5720b60405160405180910390a25050565b600063714df77c60e01b7bffffffffffffffffffffffffffffffffffffffffffffffffffffffff1916827bffffffffffffffffffffffffffffffffffffffffffffffffffffffff19161480611272575061127182611a4e565b5b9050919050565b3373ffffffffffffffffffffffffffffffffffffffff16611298610a49565b73ffffffffffffffffffffffffffffffffffffffff16146112ee576040517f08c379a00000000000000000000000000000000000000000000000000000000081526004016112e5906136a9565b60405180910390fd5b565b7fdeba1e292f8ba88238e10ab3c7f88bd4be4fac56cad5194b6ecceaf653468af160001b820361134c576040517f85c169bd00000000000000000000000000000000000000000000000000000000815260040160405180910390fd5b7f2f0a68ab07768e01943a599e73362a0e17a63a72e94dd2e384d2c1d4db93275660001b82036113a8576040517f76755b3800000000000000000000000000000000000000000000000000000000815260040160405180910390fd5b6113b282826111c6565b5050565b6000600182019050919050565b600033905090565b600073ffffffffffffffffffffffffffffffffffffffff168273ffffffffffffffffffffffffffffffffffffffff1603611431576040517f6355e76600000000000000000000000000000000000000000000000000000000815260040160405180910390fd5b8273ffffffffffffffffffffffffffffffffffffffff168273ffffffffffffffffffffffffffffffffffffffff1603156115aa5780600560008573ffffffffffffffffffffffffffffffffffffffff1673ffffffffffffffffffffffffffffffffffffffff16815260200190815260200160002060008473ffffffffffffffffffffffffffffffffffffffff1673ffffffffffffffffffffffffffffffffffffffff168152602001908152602001600020819055506000811461154e57808373ffffffffffffffffffffffffffffffffffffffff168373ffffffffffffffffffffffffffffffffffffffff167fd66aff874162a96578e919097b6f6d153dfd89a5cec41bb331fdb0c4aec16e2c60405160405180910390a46115a9565b8273ffffffffffffffffffffffffffffffffffffffff168273ffffffffffffffffffffffffffffffffffffffff167f50546e66e5f44d728365dc3908c63bc5cfeeab470722c1677e3073a6ac294aa160405160405180910390a35b5b505050565b60606001600083815260200190815260200160002080546115cf90612f8c565b80601f01602080910402602001604051908101604052809291908181526020018280546115fb90612f8c565b80156116485780601f1061161d57610100808354040283529160200191611648565b820191906000526020600020905b81548152906001019060200180831161162b57829003601f168201915b50505050509050919050565b600073ffffffffffffffffffffffffffffffffffffffff168573ffffffffffffffffffffffffffffffffffffffff1614806116bb5750600073ffffffffffffffffffffffffffffffffffffffff168473ffffffffffffffffffffffffffffffffffffffff16145b156116f2576040517fd2d5ec3000000000000000000000000000000000000000000000000000000000815260040160405180910390fd5b6000600460008773ffffffffffffffffffffffffffffffffffffffff1673ffffffffffffffffffffffffffffffffffffffff1681526020019081526020016000205490508084111561177f578086856040517f08d47949000000000000000000000000000000000000000000000000000000008152600401611776939291906136c9565b60405180910390fd5b60006117896113c3565b9050611796878787611ab8565b84600460008973ffffffffffffffffffffffffffffffffffffffff1673ffffffffffffffffffffffffffffffffffffffff16815260200190815260200160002060008282546117e59190613031565b9250508190555084600460008873ffffffffffffffffffffffffffffffffffffffff1673ffffffffffffffffffffffffffffffffffffffff168152602001908152602001600020600082825461183b9190613700565b925050819055508573ffffffffffffffffffffffffffffffffffffffff168773ffffffffffffffffffffffffffffffffffffffff168273ffffffffffffffffffffffffffffffffffffffff167f3997e418d2cef0b3b0e907b1e39605c3f7d32dbd061e82ea5b4a770d46a160a68888886040516118ba93929190613756565b60405180910390a46118ce87878786611b59565b6118db8787878787611c48565b50505050505050565b600073ffffffffffffffffffffffffffffffffffffffff168473ffffffffffffffffffffffffffffffffffffffff160361194a576040517fd2d5ec3000000000000000000000000000000000000000000000000000000000815260040160405180910390fd5b60006119546113c3565b905061196260008686611ab8565b83600460008773ffffffffffffffffffffffffffffffffffffffff1673ffffffffffffffffffffffffffffffffffffffff16815260200190815260200160002060008282546119b19190613700565b925050819055508473ffffffffffffffffffffffffffffffffffffffff16600073ffffffffffffffffffffffffffffffffffffffff168273ffffffffffffffffffffffffffffffffffffffff167f3997e418d2cef0b3b0e907b1e39605c3f7d32dbd061e82ea5b4a770d46a160a6878787604051611a3193929190613756565b60405180910390a4611a47600086868686611c48565b5050505050565b60007f01ffc9a7000000000000000000000000000000000000000000000000000000007bffffffffffffffffffffffffffffffffffffffffffffffffffffffff1916827bffffffffffffffffffffffffffffffffffffffffffffffffffffffff1916149050919050565b600073ffffffffffffffffffffffffffffffffffffffff168373ffffffffffffffffffffffffffffffffffffffff1603611b06578060036000828254611afe9190613700565b925050819055505b600073ffffffffffffffffffffffffffffffffffffffff168273ffffffffffffffffffffffffffffffffffffffff1603611b54578060036000828254611b4c9190613031565b925050819055505b505050565b611b6a84636bb56a1460e01b611ddb565b15611c4257600084848484604051602001611b889493929190613839565b60405160208183030381529060405290508473ffffffffffffffffffffffffffffffffffffffff16636bb56a147f40b8bec57d7b5ff0dbd9e9acd0a47dfeb0101e1a203766f5ccab00445fbf39e960001b836040518363ffffffff1660e01b8152600401611bf7929190613892565b6000604051808303816000875af1158015611c16573d6000803e3d6000fd5b505050506040513d6000823e3d601f19601f82011682018060405250810190611c3f9190613932565b50505b50505050565b611c5984636bb56a1460e01b611ddb565b15611d3557600085858584604051602001611c779493929190613839565b60405160208183030381529060405290508473ffffffffffffffffffffffffffffffffffffffff16636bb56a147fdbe2c314e1aee2970c72666f2ebe8933a8575263ea71e5ff6a9178e95d47a26f60001b836040518363ffffffff1660e01b8152600401611ce6929190613892565b6000604051808303816000875af1158015611d05573d6000803e3d6000fd5b505050506040513d6000823e3d601f19601f82011682018060405250810190611d2e9190613932565b5050611dd4565b81611dd35760008473ffffffffffffffffffffffffffffffffffffffff163b14611d9657836040517fa608fbb6000000000000000000000000000000000000000000000000000000008152600401611d8d9190612a13565b60405180910390fd5b836040517f26c247f4000000000000000000000000000000000000000000000000000000008152600401611dca9190612a13565b60405180910390fd5b5b5050505050565b6000806301ffc9a760e01b83604051602401611df7919061398a565b604051602081830303815290604052907bffffffffffffffffffffffffffffffffffffffffffffffffffffffff19166020820180517bffffffffffffffffffffffffffffffffffffffffffffffffffffffff838183161783525050505090506000808573ffffffffffffffffffffffffffffffffffffffff1661753084604051611e8191906139a5565b6000604051808303818686fa925050503d8060008114611ebd576040519150601f19603f3d011682016040523d82523d6000602084013e611ec2565b606091505b5091509150602081511015611edd5760009350505050611f00565b818015611efa575080806020019051810190611ef991906139d1565b5b93505050505b92915050565b604051806060016040528060608152602001600073ffffffffffffffffffffffffffffffffffffffff168152602001600081525090565b6000604051905090565b600080fd5b600080fd5b60007fffffffff0000000000000000000000000000000000000000000000000000000082169050919050565b611f8681611f51565b8114611f9157600080fd5b50565b600081359050611fa381611f7d565b92915050565b600060208284031215611fbf57611fbe611f47565b5b6000611fcd84828501611f94565b91505092915050565b60008115159050919050565b611feb81611fd6565b82525050565b60006020820190506120066000830184611fe2565b92915050565b600080fd5b6000601f19601f8301169050919050565b7f4e487b7100000000000000000000000000000000000000000000000000000000600052604160045260246000fd5b61205a82612011565b810181811067ffffffffffffffff8211171561207957612078612022565b5b80604052505050565b600061208c611f3d565b90506120988282612051565b919050565b600067ffffffffffffffff8211156120b8576120b7612022565b5b602082029050602081019050919050565b600080fd5b6000819050919050565b6120e1816120ce565b81146120ec57600080fd5b50565b6000813590506120fe816120d8565b92915050565b60006121176121128461209d565b612082565b9050808382526020820190506020840283018581111561213a576121396120c9565b5b835b81811015612163578061214f88826120ef565b84526020840193505060208101905061213c565b5050509392505050565b600082601f8301126121825761218161200c565b5b8135612192848260208601612104565b91505092915050565b600067ffffffffffffffff8211156121b6576121b5612022565b5b602082029050602081019050919050565b600080fd5b600067ffffffffffffffff8211156121e7576121e6612022565b5b6121f082612011565b9050602081019050919050565b82818337600083830152505050565b600061221f61221a846121cc565b612082565b90508281526020810184848401111561223b5761223a6121c7565b5b6122468482856121fd565b509392505050565b600082601f8301126122635761226261200c565b5b813561227384826020860161220c565b91505092915050565b600061228f61228a8461219b565b612082565b905080838252602082019050602084028301858111156122b2576122b16120c9565b5b835b818110156122f957803567ffffffffffffffff8111156122d7576122d661200c565b5b8086016122e4898261224e565b855260208501945050506020810190506122b4565b5050509392505050565b600082601f8301126123185761231761200c565b5b813561232884826020860161227c565b91505092915050565b6000806040838503121561234857612347611f47565b5b600083013567ffffffffffffffff81111561236657612365611f4c565b5b6123728582860161216d565b925050602083013567ffffffffffffffff81111561239357612392611f4c565b5b61239f85828601612303565b9150509250929050565b6000819050919050565b6123bc816123a9565b82525050565b60006020820190506123d760008301846123b3565b92915050565b600081519050919050565b600082825260208201905092915050565b6000819050602082019050919050565b600081519050919050565b600082825260208201905092915050565b60005b83811015612443578082015181840152602081019050612428565b83811115612452576000848401525b50505050565b600061246382612409565b61246d8185612414565b935061247d818560208601612425565b61248681612011565b840191505092915050565b600073ffffffffffffffffffffffffffffffffffffffff82169050919050565b60006124bc82612491565b9050919050565b6124cc816124b1565b82525050565b6124db816123a9565b82525050565b600060608301600083015184820360008601526124fe8282612458565b915050602083015161251360208601826124c3565b50604083015161252660408601826124d2565b508091505092915050565b600061253d83836124e1565b905092915050565b6000602082019050919050565b600061255d826123dd565b61256781856123e8565b935083602082028501612579856123f9565b8060005b858110156125b557848403895281516125968582612531565b94506125a183612545565b925060208a0199505060018101905061257d565b50829750879550505050505092915050565b6125d0816124b1565b82525050565b600060608201905081810360008301526125f08186612552565b90506125ff60208301856123b3565b61260c60408301846125c7565b949350505050565b61261d816124b1565b811461262857600080fd5b50565b60008135905061263a81612614565b92915050565b612649816123a9565b811461265457600080fd5b50565b60008135905061266681612640565b92915050565b6000806040838503121561268357612682611f47565b5b60006126918582860161262b565b92505060206126a285828601612657565b9150509250929050565b6000602082840312156126c2576126c1611f47565b5b600082013567ffffffffffffffff8111156126e0576126df611f4c565b5b6126ec8482850161216d565b91505092915050565b600081519050919050565b600082825260208201905092915050565b6000819050602082019050919050565b600081519050919050565b600082825260208201905092915050565b600061274882612721565b612752818561272c565b9350612762818560208601612425565b61276b81612011565b840191505092915050565b6000612782838361273d565b905092915050565b6000602082019050919050565b60006127a2826126f5565b6127ac8185612700565b9350836020820285016127be85612711565b8060005b858110156127fa57848403895281516127db8582612776565b94506127e68361278a565b925060208a019950506001810190506127c2565b50829750879550505050505092915050565b600060208201905081810360008301526128268184612797565b905092915050565b60006020828403121561284457612843611f47565b5b6000612852848285016120ef565b91505092915050565b600082825260208201905092915050565b600061287782612721565b612881818561285b565b9350612891818560208601612425565b61289a81612011565b840191505092915050565b600060208201905081810360008301526128bf818461286c565b905092915050565b6000602082840312156128dd576128dc611f47565b5b60006128eb8482850161262b565b91505092915050565b6128fd81611fd6565b811461290857600080fd5b50565b60008135905061291a816128f4565b92915050565b600080600080600060a0868803121561293c5761293b611f47565b5b600061294a8882890161262b565b955050602061295b8882890161262b565b945050604061296c88828901612657565b935050606061297d8882890161290b565b925050608086013567ffffffffffffffff81111561299e5761299d611f4c565b5b6129aa8882890161224e565b9150509295509295909350565b600080604083850312156129ce576129cd611f47565b5b60006129dc858286016120ef565b925050602083013567ffffffffffffffff8111156129fd576129fc611f4c565b5b612a098582860161224e565b9150509250929050565b6000602082019050612a2860008301846125c7565b92915050565b600080fd5b60008083601f840112612a4957612a4861200c565b5b8235905067ffffffffffffffff811115612a6657612a65612a2e565b5b602083019150836001820283011115612a8257612a816120c9565b5b9250929050565b60008060208385031215612aa057612a9f611f47565b5b600083013567ffffffffffffffff811115612abe57612abd611f4c565b5b612aca85828601612a33565b92509250509250929050565b600080600060408486031215612aef57612aee611f47565b5b6000612afd86828701612657565b935050602084013567ffffffffffffffff811115612b1e57612b1d611f4c565b5b612b2a86828701612a33565b92509250509250925092565b600067ffffffffffffffff821115612b5157612b50612022565b5b602082029050602081019050919050565b6000612b75612b7084612b36565b612082565b90508083825260208201905060208402830185811115612b9857612b976120c9565b5b835b81811015612bc15780612bad888261262b565b845260208401935050602081019050612b9a565b5050509392505050565b600082601f830112612be057612bdf61200c565b5b8135612bf0848260208601612b62565b91505092915050565b600067ffffffffffffffff821115612c1457612c13612022565b5b602082029050602081019050919050565b6000612c38612c3384612bf9565b612082565b90508083825260208201905060208402830185811115612c5b57612c5a6120c9565b5b835b81811015612c845780612c708882612657565b845260208401935050602081019050612c5d565b5050509392505050565b600082601f830112612ca357612ca261200c565b5b8135612cb3848260208601612c25565b91505092915050565b600080600080600060a08688031215612cd857612cd7611f47565b5b600086013567ffffffffffffffff811115612cf657612cf5611f4c565b5b612d0288828901612bcb565b955050602086013567ffffffffffffffff811115612d2357612d22611f4c565b5b612d2f88828901612bcb565b945050604086013567ffffffffffffffff811115612d5057612d4f611f4c565b5b612d5c88828901612c8e565b9350506060612d6d8882890161290b565b925050608086013567ffffffffffffffff811115612d8e57612d8d611f4c565b5b612d9a88828901612303565b9150509295509295909350565b600060208284031215612dbd57612dbc611f47565b5b6000612dcb84828501612657565b91505092915050565b60008060408385031215612deb57612dea611f47565b5b6000612df98582860161262b565b9250506020612e0a8582860161262b565b9150509250929050565b600082825260208201905092915050565b6000612e3082612409565b612e3a8185612e14565b9350612e4a818560208601612425565b612e5381612011565b840191505092915050565b60006060820190508181036000830152612e788186612e25565b9050612e8760208301856125c7565b612e9460408301846123b3565b949350505050565b7f4b657973206c656e677468206e6f7420657175616c20746f2076616c7565732060008201527f6c656e6774680000000000000000000000000000000000000000000000000000602082015250565b6000612ef8602683612e14565b9150612f0382612e9c565b604082019050919050565b60006020820190508181036000830152612f2781612eeb565b9050919050565b7f4e487b7100000000000000000000000000000000000000000000000000000000600052603260045260246000fd5b7f4e487b7100000000000000000000000000000000000000000000000000000000600052602260045260246000fd5b60006002820490506001821680612fa457607f821691505b602082108103612fb757612fb6612f5d565b5b50919050565b6000608082019050612fd260008301876125c7565b612fdf60208301866123b3565b612fec60408301856125c7565b612ff960608301846123b3565b95945050505050565b7f4e487b7100000000000000000000000000000000000000000000000000000000600052601160045260246000fd5b600061303c826123a9565b9150613047836123a9565b92508282101561305a57613059613002565b5b828203905092915050565b600082905092915050565b60008190508160005260206000209050919050565b60006020601f8301049050919050565b600082821b905092915050565b6000600883026130d27fffffffffffffffffffffffffffffffffffffffffffffffffffffffffffffffff82613095565b6130dc8683613095565b95508019841693508086168417925050509392505050565b6000819050919050565b600061311961311461310f846123a9565b6130f4565b6123a9565b9050919050565b6000819050919050565b613133836130fe565b61314761313f82613120565b8484546130a2565b825550505050565b600090565b61315c61314f565b61316781848461312a565b505050565b5b8181101561318b57613180600082613154565b60018101905061316d565b5050565b601f8211156131d0576131a181613070565b6131aa84613085565b810160208510156131b9578190505b6131cd6131c585613085565b83018261316c565b50505b505050565b600082821c905092915050565b60006131f3600019846008026131d5565b1980831691505092915050565b600061320c83836131e2565b9150826002028217905092915050565b6132268383613065565b67ffffffffffffffff81111561323f5761323e612022565b5b6132498254612f8c565b61325482828561318f565b6000601f8311600181146132835760008415613271578287013590505b61327b8582613200565b8655506132e3565b601f19841661329186613070565b60005b828110156132b957848901358255600182019150602085019450602081019050613294565b868310156132d657848901356132d2601f8916826131e2565b8355505b6001600288020188555050505b50505050505050565b60006132f7826123a9565b91507fffffffffffffffffffffffffffffffffffffffffffffffffffffffffffffffff820361332957613328613002565b5b600182019050919050565b60008154905061334381612f8c565b9050919050565b818103613358575050613430565b61336182613334565b67ffffffffffffffff81111561337a57613379612022565b5b6133848254612f8c565b61338f82828561318f565b6000601f8311600181146133be57600084156133ac578287015490505b6133b68582613200565b865550613429565b601f1984166133cc87613070565b96506133d786613070565b60005b828110156133ff578489015482556001820191506001850194506020810190506133da565b8683101561341c5784890154613418601f8916826131e2565b8355505b6001600288020188555050505b5050505050505b565b7f4f6e6c7920617574686f722063616e206564697420706f737400000000000000600082015250565b6000613468601983612e14565b915061347382613432565b602082019050919050565b600060208201905081810360008301526134978161345b565b9050919050565b7f4f776e61626c653a206e6577206f776e657220697320746865207a65726f206160008201527f6464726573730000000000000000000000000000000000000000000000000000602082015250565b60006134fa602683612e14565b91506135058261349e565b604082019050919050565b60006020820190508181036000830152613529816134ed565b9050919050565b60008190508160005260206000209050919050565b601f8211156135865761355781613530565b61356084613085565b8101602085101561356f578190505b61358361357b85613085565b83018261316c565b50505b505050565b61359482612721565b67ffffffffffffffff8111156135ad576135ac612022565b5b6135b78254612f8c565b6135c2828285613545565b600060209050601f8311600181146135f557600084156135e3578287015190505b6135ed8582613200565b865550613655565b601f19841661360386613530565b60005b8281101561362b57848901518255600182019150602085019450602081019050613606565b868310156136485784890151613644601f8916826131e2565b8355505b6001600288020188555050505b505050505050565b7f4f776e61626c653a2063616c6c6572206973206e6f7420746865206f776e6572600082015250565b6000613693602083612e14565b915061369e8261365d565b602082019050919050565b600060208201905081810360008301526136c281613686565b9050919050565b60006060820190506136de60008301866123b3565b6136eb60208301856125c7565b6136f860408301846123b3565b949350505050565b600061370b826123a9565b9150613716836123a9565b9250827fffffffffffffffffffffffffffffffffffffffffffffffffffffffffffffffff0382111561374b5761374a613002565b5b828201905092915050565b600060608201905061376b60008301866123b3565b6137786020830185611fe2565b818103604083015261378a818461286c565b9050949350505050565b60008160601b9050919050565b60006137ac82613794565b9050919050565b60006137be826137a1565b9050919050565b6137d66137d1826124b1565b6137b3565b82525050565b6000819050919050565b6137f76137f2826123a9565b6137dc565b82525050565b600081905092915050565b600061381382612721565b61381d81856137fd565b935061382d818560208601612425565b80840191505092915050565b600061384582876137c5565b60148201915061385582866137c5565b60148201915061386582856137e6565b6020820191506138758284613808565b915081905095945050505050565b61388c816120ce565b82525050565b60006040820190506138a76000830185613883565b81810360208301526138b9818461286c565b90509392505050565b60006138d56138d0846121cc565b612082565b9050828152602081018484840111156138f1576138f06121c7565b5b6138fc848285612425565b509392505050565b600082601f8301126139195761391861200c565b5b81516139298482602086016138c2565b91505092915050565b60006020828403121561394857613947611f47565b5b600082015167ffffffffffffffff81111561396657613965611f4c565b5b61397284828501613904565b91505092915050565b61398481611f51565b82525050565b600060208201905061399f600083018461397b565b92915050565b60006139b18284613808565b915081905092915050565b6000815190506139cb816128f4565b92915050565b6000602082840312156139e7576139e6611f47565b5b60006139f5848285016139bc565b9150509291505056fea2646970667358221220ad5be3447da4b7c8819f3924d8880f14011ee832ce775aae99301d2f2f852fe764736f6c634300080f0033",
  "devdoc": {
    "errors": {
      "LSP4TokenNameNotEditable()": [
        {
          "details": "Reverts when trying to edit the data key `LSP4TokenName` after the digital asset contract has been deployed.      The `LSP4TokenName` data key is located inside the ERC725Y key-value store of the digital asset contract.      It can be set only once inside the constructor/initializer when the digital asset contract is being deployed."
        }
      ],
      "LSP4TokenSymbolNotEditable()": [
        {
          "details": "Reverts when trying to edit the data key `LSP4TokenSymbol` after the digital asset contract has been deployed.      The `LSP4TokenSymbol` data key is located inside the ERC725Y key-value store of the digital asset contract.      It can be set only once inside the constructor/initializer when the digital asset contract is being deployed."
        }
      ]
    },
    "kind": "dev",
    "methods": {
      "authorizeOperator(address,uint256)": {
        "details": "Sets `amount` as the amount of tokens `operator` address has access to from callers tokens. See {isOperatorFor}. Requirements - `operator` cannot be the zero address. Emits an {AuthorizedOperator} event.",
        "params": {
          "amount": "The amount of tokens operator has access to.",
          "operator": "The address to authorize as an operator."
        }
      },
      "balanceOf(address)": {
        "details": "Returns the number of tokens owned by `tokenOwner`.",
        "params": {
          "tokenOwner": "The address to query"
        },
        "returns": {
          "_0": "The number of tokens owned by this address"
        }
      },
      "decimals()": {
        "details": "Returns the number of decimals used to get its user representation If the contract represents a NFT then 0 SHOULD be used, otherwise 18 is the common value NOTE: This information is only used for _display_ purposes: it in no way affects any of the arithmetic of the contract, including {balanceOf} and {transfer}."
      },
      "getData(bytes32)": {
        "params": {
          "dataKey": "The key which value to retrieve"
        },
        "returns": {
          "dataValue": "The data stored at the key"
        }
      },
      "getData(bytes32[])": {
        "params": {
          "dataKeys": "The array of keys which values to retrieve"
        },
        "returns": {
          "dataValues": "The array of data stored at multiple keys"
        }
      },
      "isOperatorFor(address,address)": {
        "details": "Returns amount of tokens `operator` address has access to from `tokenOwner`. Operators can send and burn tokens on behalf of their owners. The tokenOwner is their own operator.",
        "params": {
          "operator": "The address to query operator status for.",
          "tokenOwner": "The token owner."
        },
        "returns": {
          "_0": "The amount of tokens `operator` address has access to from `tokenOwner`."
        }
      },
      "owner()": {
        "details": "Returns the address of the current owner."
      },
      "renounceOwnership()": {
        "details": "Leaves the contract without owner. It will not be possible to call `onlyOwner` functions anymore. Can only be called by the current owner. NOTE: Renouncing ownership will leave the contract without an owner, thereby removing any functionality that is only available to the owner."
      },
      "revokeOperator(address)": {
        "details": "Removes `operator` address as an operator of callers tokens. See {isOperatorFor}. Requirements - `operator` cannot be the zero address. Emits a {RevokedOperator} event.",
        "params": {
          "operator": "The address to revoke as an operator."
        }
      },
      "setData(bytes32,bytes)": {
        "params": {
          "dataKey": "The key to retrieve stored value",
          "dataValue": "The value to set SHOULD only be callable by the owner of the contract set via ERC173 Emits a {DataChanged} event."
        }
      },
      "setData(bytes32[],bytes[])": {
        "details": "Sets array of data for multiple given `dataKeys` SHOULD only be callable by the owner of the contract set via ERC173 Emits a {DataChanged} event.",
        "params": {
          "dataKeys": "The array of data keys for values to set",
          "dataValues": "The array of values to set"
        }
      },
      "supportsInterface(bytes4)": {
        "details": "See {IERC165-supportsInterface}."
      },
      "totalSupply()": {
        "details": "Returns the number of existing tokens.",
        "returns": {
          "_0": "The number of existing tokens"
        }
      },
      "transfer(address,address,uint256,bool,bytes)": {
        "details": "Transfers `amount` of tokens from `from` to `to`. The `force` parameter will be used when notifying the token sender and receiver. Requirements: - `from` cannot be the zero address. - `to` cannot be the zero address. - `amount` tokens must be owned by `from`. - If the caller is not `from`, it must be an operator for `from` with access to at least `amount` tokens. Emits a {Transfer} event.",
        "params": {
          "amount": "The amount of tokens to transfer.",
          "data": "Additional data the caller wants included in the emitted event, and sent in the hooks to `from` and `to` addresses.",
          "force": "When set to TRUE, to may be any address but when set to FALSE to must be a contract that supports LSP1 UniversalReceiver",
          "from": "The sending address.",
          "to": "The receiving address."
        }
      },
      "transferBatch(address[],address[],uint256[],bool,bytes[])": {
        "details": "Transfers many tokens based on the list `from`, `to`, `amount`. If any transfer fails the call will revert. Requirements: - `from`, `to`, `amount` lists are the same length. - no values in `from` can be the zero address. - no values in `to` can be the zero address. - each `amount` tokens must be owned by `from`. - If the caller is not `from`, it must be an operator for `from` with access to at least `amount` tokens. Emits {Transfer} events.",
        "params": {
          "amount": "The amount of tokens to transfer.",
          "data": "Additional data the caller wants included in the emitted event, and sent in the hooks to `from` and `to` addresses.",
          "force": "When set to TRUE, to may be any address but when set to FALSE to must be a contract that supports LSP1 UniversalReceiver",
          "from": "The list of sending addresses.",
          "to": "The list of receiving addresses."
        }
      },
      "transferOwnership(address)": {
        "details": "Transfers ownership of the contract to a new account (`newOwner`). Can only be called by the current owner."
      }
    },
    "version": 1
  },
  "userdoc": {
    "events": {
      "DataChanged(bytes32)": {
        "notice": "Emitted when data at a key is changed"
      }
    },
    "kind": "user",
    "methods": {
      "getData(bytes32)": {
        "notice": "Gets singular data at a given `dataKey`"
      },
      "getData(bytes32[])": {
        "notice": "Gets array of data for multiple given keys"
      },
      "setData(bytes32,bytes)": {
        "notice": "Sets singular data for a given `dataKey`"
      }
    },
    "version": 1
  },
  "storageLayout": {
    "storage": [
      {
        "astId": 278,
        "contract": "contracts/LinksNFT.sol:LinksNFT",
        "label": "_owner",
        "offset": 0,
        "slot": "0",
        "type": "t_address"
      },
      {
        "astId": 50,
        "contract": "contracts/LinksNFT.sol:LinksNFT",
        "label": "store",
        "offset": 0,
        "slot": "1",
        "type": "t_mapping(t_bytes32,t_bytes_storage)"
      },
      {
        "astId": 1028,
        "contract": "contracts/LinksNFT.sol:LinksNFT",
        "label": "_isNFT",
        "offset": 0,
        "slot": "2",
        "type": "t_bool"
      },
      {
        "astId": 1030,
        "contract": "contracts/LinksNFT.sol:LinksNFT",
        "label": "_existingTokens",
        "offset": 0,
        "slot": "3",
        "type": "t_uint256"
      },
      {
        "astId": 1034,
        "contract": "contracts/LinksNFT.sol:LinksNFT",
        "label": "_tokenOwnerBalances",
        "offset": 0,
        "slot": "4",
        "type": "t_mapping(t_address,t_uint256)"
      },
      {
        "astId": 1040,
        "contract": "contracts/LinksNFT.sol:LinksNFT",
        "label": "_operatorAuthorizedAmount",
        "offset": 0,
        "slot": "5",
        "type": "t_mapping(t_address,t_mapping(t_address,t_uint256))"
      },
      {
        "astId": 2736,
        "contract": "contracts/LinksNFT.sol:LinksNFT",
        "label": "latestLink",
        "offset": 0,
        "slot": "6",
        "type": "t_struct(Link)2733_storage"
      },
      {
        "astId": 2739,
        "contract": "contracts/LinksNFT.sol:LinksNFT",
        "label": "linksIds",
        "offset": 0,
        "slot": "9",
        "type": "t_array(t_uint256)dyn_storage"
      },
      {
        "astId": 2744,
        "contract": "contracts/LinksNFT.sol:LinksNFT",
        "label": "linkByTokenId",
        "offset": 0,
        "slot": "10",
        "type": "t_mapping(t_uint256,t_struct(Link)2733_storage)"
      },
      {
        "astId": 2746,
        "contract": "contracts/LinksNFT.sol:LinksNFT",
        "label": "linksCounter",
        "offset": 0,
        "slot": "11",
        "type": "t_uint256"
      },
      {
        "astId": 2748,
        "contract": "contracts/LinksNFT.sol:LinksNFT",
        "label": "admin",
        "offset": 0,
        "slot": "12",
        "type": "t_address"
      }
    ],
    "types": {
      "t_address": {
        "encoding": "inplace",
        "label": "address",
        "numberOfBytes": "20"
      },
      "t_array(t_uint256)dyn_storage": {
        "base": "t_uint256",
        "encoding": "dynamic_array",
        "label": "uint256[]",
        "numberOfBytes": "32"
      },
      "t_bool": {
        "encoding": "inplace",
        "label": "bool",
        "numberOfBytes": "1"
      },
      "t_bytes32": {
        "encoding": "inplace",
        "label": "bytes32",
        "numberOfBytes": "32"
      },
      "t_bytes_storage": {
        "encoding": "bytes",
        "label": "bytes",
        "numberOfBytes": "32"
      },
      "t_mapping(t_address,t_mapping(t_address,t_uint256))": {
        "encoding": "mapping",
        "key": "t_address",
        "label": "mapping(address => mapping(address => uint256))",
        "numberOfBytes": "32",
        "value": "t_mapping(t_address,t_uint256)"
      },
      "t_mapping(t_address,t_uint256)": {
        "encoding": "mapping",
        "key": "t_address",
        "label": "mapping(address => uint256)",
        "numberOfBytes": "32",
        "value": "t_uint256"
      },
      "t_mapping(t_bytes32,t_bytes_storage)": {
        "encoding": "mapping",
        "key": "t_bytes32",
        "label": "mapping(bytes32 => bytes)",
        "numberOfBytes": "32",
        "value": "t_bytes_storage"
      },
      "t_mapping(t_uint256,t_struct(Link)2733_storage)": {
        "encoding": "mapping",
        "key": "t_uint256",
        "label": "mapping(uint256 => struct LinksNFT.Link)",
        "numberOfBytes": "32",
        "value": "t_struct(Link)2733_storage"
      },
      "t_string_storage": {
        "encoding": "bytes",
        "label": "string",
        "numberOfBytes": "32"
      },
      "t_struct(Link)2733_storage": {
        "encoding": "inplace",
        "label": "struct LinksNFT.Link",
        "members": [
          {
            "astId": 2728,
            "contract": "contracts/LinksNFT.sol:LinksNFT",
            "label": "cid",
            "offset": 0,
            "slot": "0",
            "type": "t_string_storage"
          },
          {
            "astId": 2730,
            "contract": "contracts/LinksNFT.sol:LinksNFT",
            "label": "author",
            "offset": 0,
            "slot": "1",
            "type": "t_address"
          },
          {
            "astId": 2732,
            "contract": "contracts/LinksNFT.sol:LinksNFT",
            "label": "id",
            "offset": 0,
            "slot": "2",
            "type": "t_uint256"
          }
        ],
        "numberOfBytes": "96"
      },
      "t_uint256": {
        "encoding": "inplace",
        "label": "uint256",
        "numberOfBytes": "32"
      }
    }
  }
}